:100000000C942A000C945E140C94A3140C94E81421
:100010000C9417090C943D080C94260F0C94800B3B
:100020000C94C90B0C94930A0C9491100C94B70F78
:100030000C9447000C9447000C9447000C94470024
:100040000C94871B0C9447000C9447000C944700B9
:100050000C94470011241FBECFE5D8E0DEBFCDBF12
:1000600011E0A0E6B0E0E2EFF7E502C005900D92E6
:10007000A239B107D9F711E0A2E9B1E001C01D92A0
:10008000A23BB107E1F70E94AA2A0C94F72B0C942B
:100090000000EF92FF920F931F937B018C0120E0F1
:1000A00030E040E05FE40E94F50388238CF0C80153
:1000B000B70120E030E040E05FE40E94C1010E940F
:1000C00055049B01AC01205030404040504806C0D0
:1000D000C801B7010E9455049B01AC01B901CA01D6
:1000E0001F910F91FF90EF900895A0E0B0E0EBE733
:1000F000F0E00C94C02BDC012B01FA019C919230B2
:1001000008F439C1EB018881823008F433C194309E
:1001100069F4843009F02FC111969C91119789815F
:10012000981709F428C1A0E6B0E025C1843009F48D
:1001300021C18230A9F4923009F01DC19A01AD01AC
:1001400088E0EA010990AE01E90109929E0181501F
:10015000C1F7E201898111969C918923818308C1AD
:10016000923009F407C112962D903C901397EB0141
:100170008A819B811496AD90BD90CD90DC901797AD
:10018000EC80FD800E811F819101281B390BB90184
:1001900037FF04C066277727621B730B6032710537
:1001A0000CF061C0121613066CF537014801062EDB
:1001B00004C096948794779467940A94D2F721E0C8
:1001C00030E040E050E004C0220F331F441F551FB1
:1001D0006A95D2F721503040404050402E213F21B7
:1001E00040235123211531054105510521F021E01E
:1001F00030E040E050E079018A01E628F72808293C
:1002000019293CC0232BD1F1260E371E350146019A
:10021000062E04C096948794779467940A94D2F734
:1002200021E030E040E050E004C0220F331F441FC3
:10023000551F6A95D2F721503040404050402A2146
:100240003B214C215D21211531054105510521F04E
:1002500021E030E040E050E059016A01A628B728CB
:10026000C828D9280BC0821593052CF01C01AA249C
:10027000BB24650103C0EE24FF24870111969C91E5
:10028000D20111968C91981709F445C0992339F041
:10029000A80197012A193B094C095D0906C0A6016E
:1002A00095012E193F09400B510B57FD08C01182D3
:1002B0003382228224833583468357831DC081E0A5
:1002C00081833382228288279927DC01821B930B4A
:1002D000A40BB50B84839583A683B7830DC0220F2F
:1002E000331F441F551F24833583468357838281E0
:1002F000938101979383828324813581468157813D
:10030000DA01C9010197A109B1098F5F9F4FAF4F72
:10031000BF4328F30BC0918333822282EA0CFB1C7B
:100320000C1D1D1DE482F5820683178383E0808304
:10033000248135814681578157FF1AC0C901AA27F8
:1003400097FDA095BA2F81709070A070B0705695EF
:10035000479537952795822B932BA42BB52B848318
:100360009583A683B7838281938101969383828349
:10037000DF0101C0D201CD01CDB7DEB7E2E10C94BF
:10038000DC2BA0E2B0E0E7ECF1E00C94CC2B69832D
:100390007A838B839C832D833E834F835887E9E048
:1003A000EE2EF12CEC0EFD1ECE010196B7010E943F
:1003B00046068E010F5E1F4FCE010596B8010E94C2
:1003C00046068A8991E089278A8BC701B801AE0168
:1003D000475E5F4F0E9475000E947105A096E6E09F
:1003E0000C94E82BA0E2B0E0E8EFF1E00C94CC2B09
:1003F00069837A838B839C832D833E834F835887C5
:10040000F9E0EF2EF12CEC0EFD1ECE010196B701A6
:100410000E9446068E010F5E1F4FCE010596B80161
:100420000E944606C701B801AE01475E5F4F0E94B9
:1004300075000E947105A096E6E00C94E82BA0E2FE
:10044000B0E0E5E2F2E00C94C02B69837A838B8301
:100450009C832D833E834F835887CE010196BE0136
:10046000675F7F4F0E944606CE010596BE016F5E14
:100470007F4F0E9446069985923088F089898230A4
:10048000C8F0943019F4823051F404C0843029F457
:10049000923081F480E690E0C6C0923049F420E0CA
:1004A0009A858A89981321E02A87CE010996BBC0D4
:1004B000823049F420E09A858A89981321E02A8BBA
:1004C000CE014196B0C02D843E844F8458886D88FB
:1004D0007E888F88988CEE24FF248701AA24BB2471
:1004E000650140E050E060E070E0E0E0F0E0C10174
:1004F00081709070892BE9F0E60CF71C081D191D1E
:100500009A01AB012A0D3B1D4C1D5D1D80E090E062
:10051000A0E0B0E0E614F7040805190520F481E036
:1005200090E0A0E0B0E0BA01A901480F591F6A1F8E
:100530007B1FAA0CBB1CCC1CDD1C97FE08C081E0F5
:1005400090E0A0E0B0E0A82AB92ACA2ADB2A3196B6
:10055000E032F10549F0660C771C881C991C569412
:10056000479437942794C3CFFA85EA892B893C892D
:100570008B859C85280F391F2E5F3F4F17C0CA01FE
:1005800081709070892B61F016950795F794E79428
:1005900080E090E0A0E0B0E8E82AF92A0A2B1B2BC3
:1005A00076956795579547952F5F3F4F77FDE7CF36
:1005B0000CC0440F551F661F771F17FD4160EE0CDE
:1005C000FF1C001F111F21503040403090E05907A0
:1005D00090E0690790E4790760F32B8F3C8FDB0193
:1005E000CA018F779070A070B07080349105A1051A
:1005F000B10561F447FD0AC0E114F10401051105DC
:1006000029F0405C5F4F6F4F7F4F40781A8EFE1786
:1006100011F081E08A8F4D8F5E8F6F8F78A383E01A
:10062000898FCE0149960E947105A096E2E10C9453
:10063000DC2BA8E1B0E0EFE1F3E00C94C82B698378
:100640007A838B839C832D833E834F835887B9E0C5
:10065000EB2EF12CEC0EFD1ECE010196B7010E948F
:1006600046068E010F5E1F4FCE010596B8010E940F
:1006700046062985223008F47EC03989323010F4CC
:10068000B8017CC08A859A8989278A87243011F02D
:10069000223031F4231709F06EC060E670E06EC0BE
:1006A000343039F41D861E861F86188A1C861B86E8
:1006B00004C0323021F484E08987B7015FC02B8504
:1006C0003C858B899C89281B390B3C872B87ED84C3
:1006D000FE840F851889AD88BE88CF88D88CEA142F
:1006E000FB040C051D0540F4EE0CFF1C001F111F40
:1006F000215030403C872B8720E030E040E050E044
:1007000080E090E0A0E0B0E460E070E0EA14FB0478
:100710000C051D0540F0282B392B4A2B5B2BEA18C2
:10072000FB080C091D09B695A79597958795EE0CC2
:10073000FF1C001F111F6F5F7F4F6F31710531F775
:10074000DA01C9018F779070A070B0708034910584
:10075000A105B10561F427FD0AC0E114F10401050A
:10076000110529F0205C3F4F4F4F5F4F20782D87B8
:100770003E874F87588BBE01675F7F4FCB010E943A
:1007800071056896EAE00C94E42BA8E1B0E0EBEC8C
:10079000F3E00C94CC2B69837A838B839C832D8329
:1007A0003E834F83588789E0E82EF12CEC0EFD1E26
:1007B000CE010196B7010E9446068E010F5E1F4FC3
:1007C000CE010596B8010E9446068985823040F028
:1007D0008989823028F0C701B8010E94BE0601C095
:1007E0008FEF6896E6E00C94E82BA8E1B0E0EBEF21
:1007F000F3E00C94CC2B69837A838B839C832D83C9
:100800003E834F83588789E0E82EF12CEC0EFD1EC5
:10081000CE010196B7010E9446068E010F5E1F4F62
:10082000CE010596B8010E9446068985823040F0C7
:100830008989823028F0C701B8010E94BE0601C034
:100840008FEF6896E6E00C94E82BA8E1B0E0EBE2CD
:10085000F4E00C94CC2B69837A838B839C832D8367
:100860003E834F83588789E0E82EF12CEC0EFD1E65
:10087000CE010196B7010E9446068E010F5E1F4F02
:10088000CE010596B8010E9446068985823040F067
:100890008989823028F0C701B8010E94BE0601C0D4
:1008A00081E06896E6E00C94E82BACE0B0E0EBE584
:1008B000F4E00C94D02B69837A838B839C83CE01E4
:1008C0000196BE016B5F7F4F0E9446068D8182308C
:1008D00061F1823050F1843021F48E81882351F10E
:1008E0002EC02F81388537FD20C06E812F31310514
:1008F0001CF06623F9F023C08EE190E0821B930B7D
:1009000029853A854B855C8504C056954795379572
:1009100027958A95D2F76623B1F05095409530958A
:1009200021953F4F4F4F5F4F0EC020E030E040E039
:1009300050E009C02FEF3FEF4FEF5FE704C020E02A
:1009400030E040E050E8B901CA012C96E2E00C9496
:10095000EC2BA8E0B0E0EFEAF4E00C94C82B7B01AC
:100960008C01611571058105910519F482E0898377
:1009700060C083E089838EE1C82ED12CDC82CB82DB
:10098000ED82FE820F831887C801B7010E942205FD
:10099000FC013197F7FF3BC0222733272E1B3F0B6B
:1009A00057016801022E04C0D694C794B794A79447
:1009B0000A94D2F740E050E060E070E081E090E01F
:1009C000A0E0B0E004C0880F991FAA1FBB1F2A95A2
:1009D000D2F70197A109B1098E219F21A023B1234C
:1009E0000097A105B10521F041E050E060E070E022
:1009F0004A295B296C297D294D835E836F83788723
:100A00008EE190E08E1B9F0B9C838B8312C03097EE
:100A100081F00E2E04C0EE0CFF1C001F111F0A9463
:100A2000D2F7ED82FE820F831887CE1ADF0ADC82AE
:100A3000CB821A82CE0101960E9471052896EAE0C7
:100A40000C94E42BEF92FF920F931F937B018C0188
:100A500080E0E81680E0F80681E0080780E01807EB
:100A600088F48FEFE816F1040105110531F028F044
:100A700088E090E0A0E0B0E017C080E090E0A0E067
:100A8000B0E012C080E0E81680E0F80680E00807D9
:100A900081E0180728F088E190E0A0E0B0E004C011
:100AA00080E190E0A0E0B0E020E230E040E050E003
:100AB000281B390B4A0B5B0B04C016950795F7945E
:100AC000E7948A95D2F7F701E859FF4F8081281BF8
:100AD000310941095109C9011F910F91FF90EF9010
:100AE0000895DF92EF92FF920F931F93FC01E48031
:100AF000F58006811781D1808081823048F480E0C2
:100B000090E0A0E1B0E0E82AF92A0A2B1B2BA5C04F
:100B1000843009F49FC0823021F4EE24FF24870141
:100B200005C0E114F1040105110519F4E0E0F0E05D
:100B300096C0628173819FEF623879070CF05BC0C9
:100B400022E83FEF261B370B2A3131052CF020E03D
:100B500030E040E050E02AC0B801A701022E04C0F6
:100B600076956795579547950A94D2F781E090E07E
:100B7000A0E0B0E004C0880F991FAA1FBB1F2A95F0
:100B8000D2F70197A109B1098E219F21A023B1239A
:100B90000097A105B10521F081E090E0A0E0B0E070
:100BA0009A01AB01282B392B4A2B5B2BDA01C901A7
:100BB0008F779070A070B07080349105A105B10559
:100BC00039F427FF09C0205C3F4F4F4F5F4F04C0EF
:100BD000215C3F4F4F4F5F4FE0E0F0E02030A0E05E
:100BE0003A07A0E04A07A0E45A0710F0E1E0F0E07D
:100BF00079018A0127C06038710564F5FB01E1586D
:100C0000FF4FD801C7018F779070A070B07080340B
:100C10009105A105B10539F4E7FE0DC080E490E02F
:100C2000A0E0B0E004C08FE390E0A0E0B0E0E80E08
:100C3000F91E0A1F1B1F17FF05C016950795F7948D
:100C4000E794319687E016950795F794E7948A958F
:100C5000D1F705C0EE24FF248701EFEFF0E06E2FFF
:100C6000679566276795902F9F77D794DD24D79453
:100C70008E2F8695492F462B582F5D29B701CA0123
:100C80001F910F91FF90EF90DF900895FC01DB0121
:100C9000408151812281622F6F7770E0221F2227CD
:100CA000221F9381892F880F822B282F30E0991FD4
:100CB0009927991F11969C93119721153105A9F534
:100CC000411551056105710511F482E037C082E8D4
:100CD0009FEF13969C938E9312979A01AB0167E056
:100CE000220F331F441F551F6A95D1F783E08C9361
:100CF0000DC0220F331F441F551F12968D919C91DA
:100D00001397019713969C938E931297203080E04F
:100D1000380780E0480780E4580758F314962D936D
:100D20003D934D935C93179708952F3F310579F4C8
:100D3000411551056105710519F484E08C930895FE
:100D400064FF03C081E08C9312C01C9210C02F5727
:100D5000304013963C932E93129783E08C9387E058
:100D6000440F551F661F771F8A95D1F7706414963C
:100D70004D935D936D937C93179708951F93DC01BA
:100D8000FB019C91923008F447C08081823008F4C6
:100D900043C0943051F411961C91843099F58181AF
:100DA000682F70E0611B71093FC0843021F09230E0
:100DB00031F48230B9F18181882389F12DC01196F7
:100DC0001C9111978230F1F081811817D9F4129695
:100DD0002D913C911397828193818217930794F010
:100DE00028173907BCF014968D919D910D90BC91F8
:100DF000A02D2481358146815781281739074A075C
:100E00005B0718F4112341F00AC082179307A40767
:100E1000B50740F4112319F061E070E005C06FEFF1
:100E20007FEF02C060E070E0CB011F910895DF9377
:100E3000CF9300D000D0CDB7DEB769837A838B83A0
:100E40009C83A0E4B0E0E0E4F0E080818F778C93B5
:100E5000E0E4F0E01082E9E2F0E089818083AAE238
:100E6000B0E0EAE2F0E080818F7B8C93AAE2B0E010
:100E7000EAE2F0E080818F778C93AAE2B0E0EAE2C8
:100E8000F0E080818F7D8C93A0E4B0E0E0E4F0E0BE
:100E9000808180688C93A0E4B0E0E0E4F0E08081A1
:100EA0008F7B8C93A0E4B0E0E0E4F0E0808180618F
:100EB0008C93A0E4B0E0E0E4F0E0808180628C9369
:100EC000A0E4B0E0E0E4F0E08081877F8C93A0E4D0
:100ED000B0E0E0E4F0E0808182608C93A0E4B0E0D8
:100EE000E0E4F0E0808184608C93AAE2B0E0EAE282
:100EF000F0E080818B7F8C930F900F900F900F907C
:100F0000CF91DF910895DF93CF930F92CDB7DEB7E6
:100F10008983EBE2F0E08081829586958770882F47
:100F200090E0817090700097A1F3ABE2B0E0EBE24B
:100F3000F0E0808180628C93ECE2F0E08981808334
:100F4000AAE2B0E0EAE2F0E0808188608C930F9042
:100F5000CF91DF910895DF93CF930F92CDB7DEB796
:100F6000EBE2F0E08081829586958770882F90E093
:100F7000817090700097A1F3ABE2B0E0EBE2F0E09B
:100F8000808180628C93AAE2B0E0EAE2F0E08081A6
:100F900080618C93EBE2F0E080818823DCF7ABE2A8
:100FA000B0E0EBE2F0E0808180688C93ECE2F0E06E
:100FB0008081898389810F90CF91DF910895DF939C
:100FC000CF9300D00F92CDB7DEB789836A834B836E
:100FD000A5E4B0E0E5E4F0E080818F7B8C93A5E4AC
:100FE000B0E0E5E4F0E08081877F8C9389818770B1
:100FF0008983A5E4B0E0E5E4F0E08081887F8C930C
:10100000A5E4B0E0E5E4F0E090818981892B8C9340
:10101000E4E4F0E08A8180838B81813041F4A9E5AA
:10102000B0E0E9E5F0E0808180648C930AC08B81B8
:10103000823039F4A9E5B0E0E9E5F0E080818F7B0A
:101040008C930F900F900F90CF91DF910895DF93C5
:10105000CF9300D0CDB7DEB79A83898389819A81F7
:10106000009731F089819A81909393018093920146
:101070000F900F90CF91DF9108951F920F920FB6AE
:101080000F9211242F933F934F935F936F937F930E
:101090008F939F93AF93BF93EF93FF93DF93CF9380
:1010A000CDB7DEB78091920190919301009729F01E
:1010B000E0919201F09193010995CF91DF91FF9119
:1010C000EF91BF91AF919F918F917F916F915F91C0
:1010D0004F913F912F910F900FBE0F901F90189539
:1010E000DF93CF9300D000D0CDB7DEB789836A837A
:1010F0004B832C83A5E4B0E0E5E4F0E080818F7BB6
:101100008C93A5E4B0E0E5E4F0E0808188608C9306
:101110008981813079F4A5E4B0E0E5E4F0E08081F4
:101120008F7E8C93A5E4B0E0E5E4F0E080818F7DD4
:101130008C9335C08981823079F4A5E4B0E0E5E490
:10114000F0E0808180618C93A5E4B0E0E5E4F0E01C
:1011500080818F7D8C9323C08981833079F4A5E4CD
:10116000B0E0E5E4F0E080818F7E8C93A5E4B0E010
:10117000E5E4F0E0808180628C9311C08981843045
:1011800071F4A5E4B0E0E5E4F0E0808180618C9347
:10119000A5E4B0E0E5E4F0E0808180628C938A8190
:1011A00087708A83A5E4B0E0E5E4F0E08081887F81
:1011B0008C93A5E4B0E0E5E4F0E090818A81892B8E
:1011C0008C93E3E4F0E08B8180838C81813041F467
:1011D000A9E5B0E0E9E5F0E0808180648C930AC085
:1011E0008C81823039F4A9E5B0E0E9E5F0E0808156
:1011F0008F7B8C930F900F900F900F90CF91DF917A
:101200000895DF93CF9300D0CDB7DEB79A8389835B
:1012100089819A81009731F089819A819093950113
:10122000809394010F900F90CF91DF9108951F92BA
:101230000F920FB60F9211242F933F934F935F930A
:101240006F937F938F939F93AF93BF93EF93FF938E
:10125000DF93CF93CDB7DEB7809194019091950144
:10126000009729F0E0919401F09195010995CF91B3
:10127000DF91FF91EF91BF91AF919F918F917F91FE
:101280006F915F914F913F912F910F900FBE0F90F3
:101290001F901895DF93CF9300D000D0CDB7DEB765
:1012A00089836A834B832C838981813009F068C0EC
:1012B000A5E4B0E0E5E4F0E0808180648C93A5E4EF
:1012C000B0E0E5E4F0E0808188608C938A81813031
:1012D00079F4A5E4B0E0E5E4F0E080818F7E8C93C2
:1012E000A5E4B0E0E5E4F0E080818F7D8C9335C02B
:1012F0008A81823079F4A5E4B0E0E5E4F0E0808111
:1013000080618C93A5E4B0E0E5E4F0E080818F7D1E
:101310008C9323C08A81833079F4A5E4B0E0E5E4BE
:10132000F0E080818F7E8C93A5E4B0E0E5E4F0E00E
:10133000808180628C9311C08A81843071F4A5E42D
:10134000B0E0E5E4F0E0808180618C93A5E4B0E05A
:10135000E5E4F0E0808180628C938B8187708B83E1
:10136000A5E4B0E0E5E4F0E08081887F8C93A5E41B
:10137000B0E0E5E4F0E090818B81892B8C935DC037
:101380008981823009F059C08A81813079F4A5E4DD
:10139000B0E0E5E4F0E080818F7E8C93A5E4B0E0DE
:1013A000E5E4F0E080818F7D8C9335C08A818230C6
:1013B00079F4A5E4B0E0E5E4F0E0808180618C930D
:1013C000A5E4B0E0E5E4F0E080818F7D8C9323C05C
:1013D0008A81833079F4A5E4B0E0E5E4F0E080812F
:1013E0008F7E8C93A5E4B0E0E5E4F0E0808180623C
:1013F0008C9311C08A81843071F4A5E4B0E0E5E4F7
:10140000F0E0808180618C93A5E4B0E0E5E4F0E059
:10141000808180628C938B8187708B83A5E4B0E0A0
:10142000E5E4F0E08081887F8C93A5E4B0E0E5E41A
:10143000F0E090818B81892B8C930F900F900F900F
:101440000F90CF91DF910895DF93CF9300D00F924B
:10145000CDB7DEB789836A834B83AFE4B0E0EFE4B6
:10146000F0E080818E7F8C93AFE4B0E0EFE4F0E0B9
:1014700080818D7F8C93AEE4B0E0EEE4F0E080817B
:10148000877F8C93AEE4B0E0EEE4F0E080818F7E65
:101490008C93898187708983AEE4B0E0EEE4F0E05C
:1014A0008081887F8C93AEE4B0E0EEE4F0E0908140
:1014B0008981892B8C93ECE4F0E08A81882F90E07D
:1014C000918380838B81813041F4A9E5B0E0E9E527
:1014D000F0E0808184608C930AC08B81823039F483
:1014E000A9E5B0E0E9E5F0E080818B7F8C930F9077
:1014F0000F900F90CF91DF910895DF93CF9300D09D
:10150000CDB7DEB79A83898389819A81009731F0BC
:1015100089819A8190939901809398010F900F90FF
:10152000CF91DF9108951F920F920FB60F92112461
:101530002F933F934F935F936F937F938F939F93DB
:10154000AF93BF93EF93FF93DF93CF93CDB7DEB706
:101550008091980190919901009729F0E09198016C
:10156000F09199010995CF91DF91FF91EF91BF9192
:10157000AF919F918F917F916F915F914F913F912B
:101580002F910F900FBE0F901F901895DF93CF9360
:1015900000D000D00F92CDB7DEB789837B836A83FA
:1015A0004C832D83AFE4B0E0EFE4F0E080818E7FE8
:1015B0008C93AFE4B0E0EFE4F0E080818D7F8C931A
:1015C000AEE4B0E0EEE4F0E0808188608C93AEE4BD
:1015D000B0E0EEE4F0E0808180618C93E6E4F0E03E
:1015E0008A819B81918380838C81813041F4A9E53C
:1015F000B0E0E9E5F0E0808180618C930AC08C81E5
:10160000823039F4A9E5B0E0E9E5F0E080818F7E31
:101610008C938D81813079F4AFE4B0E0EFE4F0E0B9
:1016200080818F7B8C93AFE4B0E0EFE4F0E08081C9
:101630008F778C9335C08D81823079F4AFE4B0E040
:10164000EFE4F0E0808180648C93AFE4B0E0EFE4FD
:10165000F0E080818F778C9323C08D81833079F483
:10166000AFE4B0E0EFE4F0E080818F7B8C93AFE4F7
:10167000B0E0EFE4F0E0808180688C9311C08D8150
:10168000843071F4AFE4B0E0EFE4F0E08081806496
:101690008C93AFE4B0E0EFE4F0E0808180688C935D
:1016A000898187708983AEE4B0E0EEE4F0E0808168
:1016B000887F8C93AEE4B0E0EEE4F0E09081898125
:1016C000892B8C930F900F900F900F900F90CF91CC
:1016D000DF910895DF93CF9300D0CDB7DEB79A8323
:1016E000898389819A81009731F089819A819093C9
:1016F0009B0180939A010F900F90CF91DF910895F5
:101700001F920F920FB60F9211242F933F934F9376
:101710005F936F937F938F939F93AF93BF93EF9359
:10172000FF93DF93CF93CDB7DEB780919A0190916D
:101730009B01009729F0E0919A01F0919B01099596
:10174000CF91DF91FF91EF91BF91AF919F918F91D9
:101750007F916F915F914F913F912F910F900FBEAD
:101760000F901F901895DF93CF9300D0CDB7DEB7C1
:101770009A83898389819A81009731F089819A813E
:1017800090939D0180939C010F900F90CF91DF91DA
:1017900008951F920F920FB60F9211242F933F932B
:1017A0004F935F936F937F938F939F93AF93BF9369
:1017B000EF93FF93DF93CF93CDB7DEB780919C017A
:1017C00090919D01009729F0E0919C01F0919D017D
:1017D0000995CF91DF91FF91EF91BF91AF919F91CB
:1017E0008F917F916F915F914F913F912F910F90CA
:1017F0000FBE0F901F901895DF93CF9300D000D0AD
:10180000CDB7DEB789836A834B832C838A81877047
:101810008A83AEE4B0E0EEE4F0E08081887F8C93D0
:10182000AEE4B0E0EEE4F0E090818A81892B8C9305
:101830008B81823079F4AFE4B0E0EFE4F0E08081B6
:101840008F7B8C93AFE4B0E0EFE4F0E080818068C0
:101850008C9311C08B81813071F4AFE4B0E0EFE480
:10186000F0E0808180618C93AFE4B0E0EFE4F0E0E1
:10187000808180628C938981882309F05FC0AFE406
:10188000B0E0EFE4F0E0808181608C93AFE4B0E001
:10189000EFE4F0E080818D7F8C93AEE4B0E0EEE485
:1018A000F0E0808188608C93AEE4B0E0EEE4F0E09C
:1018B00080818F7E8C938B81813001F5EAE4F0E0AA
:1018C0008C81282F30E084E690E0AC01421B530B62
:1018D000CA019C01220F331FC9019695982F8827B2
:1018E00097958795821B930B840F951F24E630E014
:1018F000B9010E94702BCB01918380838B81823050
:1019000009F0D2C0EAE4F0E08C81482F50E0CA012F
:101910009C01220F331FC9019695982F8827979510
:101920008795821B930B840F951F24E630E0B90145
:101930000E94702BCB0191838083B6C08981813056
:1019400009F058C0AFE4B0E0EFE4F0E080818E7FB2
:101950008C93AFE4B0E0EFE4F0E0808182608C93A0
:10196000AEE4B0E0EEE4F0E0808188608C93AEE419
:10197000B0E0EEE4F0E080818F7E8C938B8181304B
:10198000E9F4EAE4F0E08C81282F30E084E690E08E
:10199000AC01421B530B9A018FEF91E0AC01249FE5
:1019A000C001259F900D349F900D112424E630E056
:1019B000B9010E94702BCB01918380838B8182308F
:1019C00009F072C0EAE4F0E08C81282F30E08FEF5C
:1019D00091E0AC01249FC001259F900D349F900D94
:1019E000112424E630E0B9010E94702BCB019183D1
:1019F00080835AC08981823009F056C0AFE4B0E0DC
:101A0000EFE4F0E0808181608C93AFE4B0E0EFE43C
:101A1000F0E0808182608C93AEE4B0E0EEE4F0E030
:101A2000808188608C93AEE4B0E0EEE4F0E08081E9
:101A30008F7E8C938B818130E9F4EAE4F0E08C8135
:101A4000282F30E084E690E0AC01421B530B9A0152
:101A50008FEF93E0AC01249FC001259F900D349F30
:101A6000900D112424E630E0B9010E94702BCB01C7
:101A7000918380838B818230B9F4EAE4F0E08C8139
:101A8000282F30E08FEF93E0AC01249FC001259F09
:101A9000900D349F900D112424E630E0B9010E948E
:101AA000702BCB01918380830F900F900F900F903C
:101AB000CF91DF9108950F93DF93CF9300D000D0A3
:101AC00000D0CDB7DEB789836A834B833D832C83F7
:101AD0000E838A8187708A83AEE4B0E0EEE4F0E0A2
:101AE0008081887F8C93AEE4B0E0EEE4F0E09081FA
:101AF0008A81892B8C938B81823079F4AFE4B0E0BA
:101B0000EFE4F0E080818F7B8C93AFE4B0E0EFE412
:101B1000F0E0808180688C9311C08B81813071F4FA
:101B2000AFE4B0E0EFE4F0E0808180618C93AFE45B
:101B3000B0E0EFE4F0E0808180628C9389818330B3
:101B400009F05EC0AFE4B0E0EFE4F0E080818E7FAA
:101B50008C93AFE4B0E0EFE4F0E0808182608C939E
:101B6000AEE4B0E0EEE4F0E0808188608C93AEE417
:101B7000B0E0EEE4F0E0808180618C93E6E4F0E098
:101B80008C819D81918380838B818130E9F4EAE4AB
:101B9000F0E08E81282F30E084E690E0821B930BEA
:101BA0009C018C819D81AC01249FC001259F900DDB
:101BB000349F900D112424E630E0B9010E945C2B83
:101BC000CB01918380837CC08B81823009F078C007
:101BD000EAE4F0E08E81282F30E08C819D81AC0119
:101BE000249FC001259F900D349F900D112424E661
:101BF00030E0B9010E945C2BCB019183808360C0EF
:101C00008981843009F05CC0AFE4B0E0EFE4F0E03B
:101C1000808181608C93AFE4B0E0EFE4F0E08081FC
:101C200082608C93AEE4B0E0EEE4F0E08081886006
:101C30008C93AEE4B0E0EEE4F0E0808180618C93C0
:101C4000EAE4F0E08C819D81918380838B818130F7
:101C5000E9F4E8E4F0E08E81282F30E084E690E0BB
:101C6000821B930B9C018C819D81AC01249FC00140
:101C7000259F900D349F900D112424E630E0B9018A
:101C80000E945C2BCB01918380831AC08B818230B0
:101C9000B9F4E8E4F0E08E81282F30E08C819D815A
:101CA000AC01249FC001259F900D349F900D1124FD
:101CB00024E630E0B9010E945C2BCB019183808344
:101CC00026960FB6F894DEBF0FBECDBFCF91DF9141
:101CD0000F910895DF93CF930F92CDB7DEB7AFE4A6
:101CE000B0E0EFE4F0E080818F7B8C93AFE4B0E074
:101CF000EFE4F0E0808180688C93AEE4B0E0EEE445
:101D0000F0E0808180618C93AEE4B0E0EEE4F0E03E
:101D1000808188608C93AFE4B0E0EFE4F0E08081F4
:101D200082608C93AFE4B0E0EFE4F0E080818E7FDE
:101D30008C9382E08983898187708983AEE4B0E0E7
:101D4000EEE4F0E08081887F8C93AEE4B0E0EEE4D6
:101D5000F0E090818981892B8C93E6E4F0E08FE1BB
:101D60009EE4918380830F90CF91DF910895DF935C
:101D7000CF9300D0CDB7DEB79A838983EAE4F0E051
:101D800089819A81918380830F900F90CF91DF9109
:101D90000895DF93CF930F92CDB7DEB782E08983AA
:101DA000AFE4B0E0EFE4F0E080818E7F8C93AFE4AD
:101DB000B0E0EFE4F0E080818D7F8C93AEE4B0E0A2
:101DC000EEE4F0E08081877F8C93AEE4B0E0EEE457
:101DD000F0E080818F7E8C93898187708983AEE467
:101DE000B0E0EEE4F0E08081887F8C93AEE4B0E078
:101DF000EEE4F0E090818981892B8C93AEE4B0E031
:101E0000EEE4F0E0808180648C93A9E5B0E0E9E540
:101E1000F0E0808180628C930F90CF91DF910895E4
:101E2000DF93CF9300D0CDB7DEB79A8389838981C2
:101E30009A81009731F089819A81909397018093DC
:101E400096010F900F90CF91DF9108951F920F92FE
:101E50000FB60F9211242F933F934F935F936F937D
:101E60007F938F939F93AF93BF93EF93FF93DF93F2
:101E7000CF93CDB7DEB780919601909197010097EF
:101E800029F0E0919601F09197010995CF91DF91AA
:101E9000FF91EF91BF91AF919F918F917F916F9142
:101EA0005F914F913F912F910F900FBE0F901F9018
:101EB0001895DF93CF9300D00F92CDB7DEB789830B
:101EC0006A834B83A3E5B0E0E3E5F0E080818F7B9C
:101ED0008C93A3E5B0E0E3E5F0E08081877F8C930D
:101EE000898187708983A3E5B0E0E3E5F0E0808134
:101EF000887F8C93A3E5B0E0E3E5F0E090818981F1
:101F0000892B8C93E2E5F0E08A8180838B8181309C
:101F100041F4A9E5B0E0E9E5F0E0808181608C93CF
:101F20000AC08B81823039F4A9E5B0E0E9E5F0E040
:101F300080818E7F8C930F900F900F90CF91DF91C7
:101F40000895DF93CF9300D0CDB7DEB79A8389830E
:101F500089819A81009731F089819A8190939F01BC
:101F600080939E010F900F90CF91DF9108951F9263
:101F70000F920FB60F9211242F933F934F935F93BD
:101F80006F937F938F939F93AF93BF93EF93FF9341
:101F9000DF93CF93CDB7DEB780919E0190919F01E3
:101FA000009729F0E0919E01F0919F010995CF9152
:101FB000DF91FF91EF91BF91AF919F918F917F91B1
:101FC0006F915F914F913F912F910F900FBE0F90A6
:101FD0001F901895DF93CF9300D000D0CDB7DEB718
:101FE00089836A834B832C83A3E5B0E0E3E5F0E0CB
:101FF00080818F7B8C93A3E5B0E0E3E5F0E0808106
:1020000088608C938981813079F4A3E5B0E0E3E5C1
:10201000F0E080818F7E8C93A3E5B0E0E3E5F0E013
:1020200080818F7D8C9335C08981823079F4A3E5DE
:10203000B0E0E3E5F0E0808180618C93A3E5B0E05F
:10204000E3E5F0E080818F7D8C9323C0898183302C
:1020500079F4A3E5B0E0E3E5F0E080818F7E8C9336
:10206000A3E5B0E0E3E5F0E0808180628C9311C0ED
:102070008981843071F4A3E5B0E0E3E5F0E080818C
:1020800080618C93A3E5B0E0E3E5F0E080818062BD
:102090008C938A8187708A83A3E5B0E0E3E5F0E062
:1020A0008081887F8C93A3E5B0E0E3E5F0E0908148
:1020B0008A81892B8C93ECE5F0E08B8180838C8185
:1020C000813041F4A9E5B0E0E9E5F0E0808181608C
:1020D0008C930AC08C81823039F4A9E5B0E0E9E53F
:1020E000F0E080818E7F8C930F900F900F900F9077
:1020F000CF91DF910895DF93CF9300D0CDB7DEB7B6
:102100009A83898389819A81009731F089819A81A4
:102110009093A1018093A0010F900F90CF91DF9138
:1021200008951F920F920FB60F9211242F933F9391
:102130004F935F936F937F938F939F93AF93BF93CF
:10214000EF93FF93DF93CF93CDB7DEB78091A001DC
:102150009091A101009729F0E091A001F091A101D7
:102160000995CF91DF91FF91EF91BF91AF919F9131
:102170008F917F916F915F914F913F912F910F9030
:102180000FBE0F901F901895DF93CF9300D000D013
:10219000CDB7DEB789836A834B832C8389818130F5
:1021A00009F08FC0A3E5B0E0E3E5F0E08081806452
:1021B0008C93A3E5B0E0E3E5F0E0808188608C9348
:1021C0008A81813079F4A3E5B0E0E3E5F0E0808135
:1021D0008F7E8C93A3E5B0E0E3E5F0E080818F7D16
:1021E0008C935CC08A81823049F5A3E5B0E0E3E5D9
:1021F000F0E080818F7E8C93A3E5B0E0E3E5F0E032
:10220000808180628C93ECE5F0E08C81482F50E077
:10221000CA019C01220F331FC9019695982F882768
:1022200097958795821B930B840F951F24E630E0CA
:10223000B9010E94702BCB01808330C08A8183302A
:1022400069F5A3E5B0E0E3E5F0E0808180618C937F
:10225000A3E5B0E0E3E5F0E0808180628C93ECE5FB
:10226000F0E08C81282F30E081E090E0821B930B1E
:1022700024E630E0B9010E94702BCB01AC01CA0109
:102280009C01220F331FC9019695982F8827979597
:102290008795821B930B840F951F80838B8187709A
:1022A0008B83A3E5B0E0E3E5F0E08081887F8C9349
:1022B000A3E5B0E0E3E5F0E090818B81892B8C937E
:1022C00084C08981823009F080C08A81813079F4AC
:1022D000A3E5B0E0E3E5F0E080818F7E8C93A3E599
:1022E000B0E0E3E5F0E080818F7D8C935CC08A8173
:1022F000823049F5A3E5B0E0E3E5F0E080818F7E30
:102300008C93A3E5B0E0E3E5F0E0808180628C93FC
:10231000ECE5F0E08C81482F50E0CA019C01220FCF
:10232000331FC9019695982F882797958795821B0B
:10233000930B840F951F24E630E0B9010E94702BA7
:10234000CB01808330C08A81833069F5A3E5B0E09A
:10235000E3E5F0E0808180618C93A3E5B0E0E3E504
:10236000F0E0808180628C93ECE5F0E08C81282F96
:1023700030E081E090E0821B930B24E630E0B9016D
:102380000E94702BCB01AC01CA019C01220F331FAC
:10239000C9019695982F882797958795821B930B4F
:1023A000840F951F80838B8187708B83A3E5B0E0BA
:1023B000E3E5F0E08081887F8C93A3E5B0E0E3E57E
:1023C000F0E090818B81892B8C930F900F900F9070
:1023D0000F90CF91DF910895DF93CF930F92CDB7F8
:1023E000DEB71982898183708983A1E2B0E0E1E2DE
:1023F000F0E080818C7F8C93E0E2F0E082E08083EB
:10240000A6E5B0E0E6E5F0E0808180648C93A6E587
:10241000B0E0E6E5F0E080818E7F8C93E2E2F0E0D0
:102420001082A6E5B0E0E6E5F0E0808184608C9360
:102430000F90CF91DF910895DF93CF93CDB7DEB7A3
:10244000A6E5B0E0E6E5F0E0808180648C93A6E547
:10245000B0E0E6E5F0E080818E7F8C93E2E2F0E090
:102460001082A6E5B0E0E6E5F0E0808184608C9320
:10247000CF91DF910895DF93CF93CDB7DEB7A6E577
:10248000B0E0E6E5F0E0808180688C93A6E5B0E0FE
:10249000E6E5F0E0808180628C93E6E5F0E0808103
:1024A0008823DCF7CF91DF910895DF93CF93CDB7E9
:1024B000DEB7CF91DF910895DF93CF93CDB7DEB72D
:1024C000CF91DF910895DF93CF930F92CDB7DEB711
:1024D00089830F90CF91DF910895DF93CF930F926F
:1024E000CDB7DEB789830F90CF91DF910895DF9349
:1024F000CF930F92CDB7DEB789830F90CF91DF9145
:102500000895DF93CF9300D0CDB7DEB79A83898348
:102510000F900F90CF91DF910895DF93CF93CDB7B8
:10252000DEB7ADE2B0E0EDE2F0E080818F778C9332
:10253000ADE2B0E0EDE2F0E080818F7D8C93ADE222
:10254000B0E0EDE2F0E0808180648C93ADE2B0E039
:10255000EDE2F0E0808180618C93ADE2B0E0EDE2ED
:10256000F0E08081877F8C93ADE2B0E0EDE2F0E0B7
:1025700080818B7F8C93AEE2B0E0EEE2F0E0808170
:102580008E7F8C93ADE2B0E0EDE2F0E080818E7F53
:102590008C93ADE2B0E0EDE2F0E080818D7F8C9332
:1025A000CF91DF910895DF93CF930F92CDB7DEB730
:1025B0008983EFE2F0E089818083EEE2F0E08081C0
:1025C0008823DCF7EFE2F0E080810F90CF91DF917C
:1025D0000895DF93CF9300D000D0CDB7DEB79C83B2
:1025E0008B831A8219820FC08A81282F30E08B8159
:1025F0009C81FC01E20FF31F80810E94D31289832A
:102600008A818F5F8A838A81282F30E08B819C8129
:10261000FC01E20FF31F8081882331F70F900F90A8
:102620000F900F90CF91DF9108950F931F93DF9339
:10263000CF9300D00F92CDB7DEB79B838A831982E8
:102640008981282F30E08A819B818C01020F131F22
:102650008FEF0E94D312F801808310C089818F5FB1
:1026600089838981282F30E08A819B818C01020F28
:10267000131F8FEF0E94D312F80180838981282FC6
:1026800030E08A819B81FC01E20FF31F808183325D
:1026900029F78981282F30E08A819B81FC01E20F94
:1026A000F31F10820F900F900F90CF91DF911F9129
:1026B0000F910895DF93CF93CDB7DEB7AFE5B0E0CC
:1026C000EFE5F0E0808180688C93CF91DF910895F1
:1026D000DF93CF93CDB7DEB7AFE5B0E0EFE5F0E045
:1026E00080818F778C93CF91DF910895DF93CF9383
:1026F0000F92CDB7DEB789838981813079F4A5E562
:10270000B0E0E5E5F0E080818E7F8C93A5E5B0E058
:10271000E5E5F0E080818D7F8C9335C08981823042
:1027200079F4A5E5B0E0E5E5F0E0808181608C9387
:10273000A5E5B0E0E5E5F0E080818D7F8C9323C0D6
:102740008981833079F4A5E5B0E0E5E5F0E08081AA
:102750008E7F8C93A5E5B0E0E5E5F0E080818260B6
:102760008C9311C08981843071F4A5E5B0E0E5E572
:10277000F0E0808181608C93A5E5B0E0E5E5F0E0D4
:10278000808182608C93ABE5B0E0EBE5F0E0808186
:1027900080648C930F90CF91DF910895DF93CF9356
:1027A0000F92CDB7DEB789838981813079F4A5E5B1
:1027B000B0E0E5E5F0E080818B7F8C93A5E5B0E0AB
:1027C000E5E5F0E08081877F8C9335C08981823098
:1027D00079F4A5E5B0E0E5E5F0E0808184608C93D4
:1027E000A5E5B0E0E5E5F0E08081877F8C9323C02C
:1027F0008981833079F4A5E5B0E0E5E5F0E08081FA
:102800008B7F8C93A5E5B0E0E5E5F0E08081886002
:102810008C9311C089818430A9F4A5E5B0E0E5E589
:10282000F0E0808184608C93A5E5B0E0E5E5F0E020
:10283000808188608C93ABE5B0E0EBE5F0E08081CF
:1028400080688C930F90CF91DF910895DF93CF93A1
:102850000F92CDB7DEB789838981843041F4A4E536
:10286000B0E0E4E5F0E0808180648C930AC0898167
:10287000843039F4A4E5B0E0E4E5F0E080818F7BBA
:102880008C93ABE5B0E0EBE5F0E0808180628C9367
:102890000F90CF91DF910895DF93CF9300D0CDB704
:1028A000DEB79A83898389819A819093B10180935D
:1028B000B0010F900F90CF91DF9108951F920F926A
:1028C0000FB60F9211242F933F934F935F936F9303
:1028D0007F938F939F93AF93BF93EF93FF93DF9378
:1028E000CF93CDB7DEB78091B0019091B101009741
:1028F00029F0E091B001F091B1010995CF91DF91FC
:10290000FF91EF91BF91AF919F918F917F916F91C7
:102910005F914F913F912F910F900FBE0F901F909D
:102920001895DF93CF9300D0CDB7DEB79A83898314
:1029300089819A819093AF018093AE010F900F909F
:10294000CF91DF9108951F920F920FB60F9211242D
:102950002F933F934F935F936F937F938F939F93A7
:10296000AF93BF93EF93FF93DF93CF93CDB7DEB7D2
:102970008091AE019091AF01009729F0E091AE01F6
:10298000F091AF010995CF91DF91FF91EF91BF9148
:10299000AF919F918F917F916F915F914F913F91F7
:1029A0002F910F900FBE0F901F901895DF93CF932C
:1029B00000D0CDB7DEB79A83898389819A819093BD
:1029C000AD018093AC010F900F90CF91DF910895EE
:1029D0001F920F920FB60F9211242F933F934F9394
:1029E0005F936F937F938F939F93AF93BF93EF9377
:1029F000FF93DF93CF93CDB7DEB78091AC01909179
:102A0000AD01009729F0E091AC01F091AD0109957D
:102A1000CF91DF91FF91EF91BF91AF919F918F91F6
:102A20007F916F915F914F913F912F910F900FBECA
:102A30000F901F901895DF93CF9300D0CDB7DEB7DE
:102A400089836A83ECE3F0E080818695882F90E0AB
:102A5000817090708823B1F7E7E5F0E08081882FDE
:102A600090E0817090708823B9F7EEE3F0E08981FF
:102A70008083EDE3F0E08A818083ACE3B0E0ECE3B7
:102A8000F0E0808184608C93ACE3B0E0ECE3F0E0B4
:102A9000808182608C930F900F90CF91DF91089589
:102AA000DF93CF9300D00F92CDB7DEB789837B83BE
:102AB0006A83ECE3F0E080818695882F90E0817056
:102AC00090708823B1F7E7E5F0E08081882F90E0EF
:102AD000817090708823B9F7EEE3F0E089818083FC
:102AE000ACE3B0E0ECE3F0E0808181608C93EDE357
:102AF000F0E08081EA81FB8180830F900F900F903E
:102B0000CF91DF910895DF93CF9300D0CDB7DEB79B
:102B10001A82198209C0898160E00E941B1589818F
:102B20009A8101969A83898389819A8124E08030F1
:102B3000920788F30F900F90CF91DF910895DF9364
:102B4000CF930F92CDB7DEB78983898160E00E9471
:102B50001B150F90CF91DF910895DF93CF93CDB7E1
:102B6000DEB727970FB6F894DEBF0FBECDBF8983BF
:102B70006A834B838981882309F4F4C08981853075
:102B800008F0F0C08A81883008F0ECC08B8188237F
:102B900009F075C08981282F30E03F832E838E8114
:102BA0009F818230910561F12E813F812330310573
:102BB00034F48E819F818130910569F0D3C02E81DC
:102BC0003F812330310589F18E819F8184309105C9
:102BD00009F440C0C7C0AAE3B0E0EAE3F0E08081B6
:102BE000482F8A81282F30E081E090E0022E02C039
:102BF000880F991F0A94E2F7809584238C93B2C0C2
:102C0000A7E3B0E0E7E3F0E08081482F8A81282F36
:102C100030E081E090E0022E02C0880F991F0A94F4
:102C2000E2F7809584238C939DC0A4E3B0E0E4E3B5
:102C3000F0E08081482F8A81282F30E081E090E009
:102C4000022E02C0880F991F0A94E2F78095842310
:102C50008C9388C0A1E3B0E0E1E3F0E08081482FED
:102C60008A81282F30E081E090E0022E02C0880F98
:102C7000991F0A94E2F7809584238C9373C08B810B
:102C8000813009F06FC08981282F30E03D832C838B
:102C90008C819D818230910551F12C813D812330C1
:102CA000310534F48C819D818130910561F05AC0E9
:102CB0002C813D812330310571F18C819D818430DF
:102CC0009105E9F14FC0AAE3B0E0EAE3F0E08081CA
:102CD000482F8A81282F30E081E090E0022E02C048
:102CE000880F991F0A94E2F7842B8C933BC0A7E3CB
:102CF000B0E0E7E3F0E08081482F8A81282F30E0C0
:102D000081E090E0022E02C0880F991F0A94E2F73A
:102D1000842B8C9327C0A4E3B0E0E4E3F0E080814F
:102D2000482F8A81282F30E081E090E0022E02C0F7
:102D3000880F991F0A94E2F7842B8C9313C0A1E3A8
:102D4000B0E0E1E3F0E08081482F8A81282F30E075
:102D500081E090E0022E02C0880F991F0A94E2F7EA
:102D6000842B8C9327960FB6F894DEBF0FBECDBF91
:102D7000CF91DF910895DF93CF93CDB7DEB727973B
:102D80000FB6F894DEBF0FBECDBF89836A834B8335
:102D90008981882309F4F4C08981853008F0F0C066
:102DA0008A81883008F0ECC08B81882309F075C0D7
:102DB0008981282F30E03F832E838E819F8182304E
:102DC000910561F12E813F812330310534F48E81EC
:102DD0009F818130910569F0D3C02E813F812330DE
:102DE000310589F18E819F818430910509F440C0BD
:102DF000C7C0ABE3B0E0EBE3F0E08081482F8A810D
:102E0000282F30E081E090E0022E02C0880F991F49
:102E10000A94E2F7809584238C93B2C0A8E3B0E0D3
:102E2000E8E3F0E08081482F8A81282F30E081E0BC
:102E300090E0022E02C0880F991F0A94E2F7809555
:102E400084238C939DC0A5E3B0E0E5E3F0E08081AE
:102E5000482F8A81282F30E081E090E0022E02C0C6
:102E6000880F991F0A94E2F7809584238C9388C079
:102E7000A2E3B0E0E2E3F0E08081482F8A81282FCE
:102E800030E081E090E0022E02C0880F991F0A9482
:102E9000E2F7809584238C9373C08B81813009F095
:102EA0006FC08981282F30E03D832C838C819D81E8
:102EB0008230910551F12C813D812330310534F46C
:102EC0008C819D818130910561F05AC02C813D81BA
:102ED0002330310571F18C819D8184309105E9F1B8
:102EE0004FC0ABE3B0E0EBE3F0E08081482F8A8194
:102EF000282F30E081E090E0022E02C0880F991F59
:102F00000A94E2F7842B8C933BC0A8E3B0E0E8E39B
:102F1000F0E08081482F8A81282F30E081E090E026
:102F2000022E02C0880F991F0A94E2F7842B8C931B
:102F300027C0A5E3B0E0E5E3F0E08081482F8A8177
:102F4000282F30E081E090E0022E02C0880F991F08
:102F50000A94E2F7842B8C9313C0A2E3B0E0E2E37F
:102F6000F0E08081482F8A81282F30E081E090E0D6
:102F7000022E02C0880F991F0A94E2F7842B8C93CB
:102F800027960FB6F894DEBF0FBECDBFCF91DF916D
:102F90000895DF93CF9300D000D00F92CDB7DEB766
:102FA00089836A838981882309F45EC18981853098
:102FB00008F05AC18A81883008F056C18981282FCB
:102FC00030E03D832C834C815D814230510509F412
:102FD00065C08C819D818330910534F42C813D81C5
:102FE0002130310571F040C14C815D814330510584
:102FF00009F4A1C08C819D818430910509F4E8C059
:1030000033C1EAE3F0E08081282F30E08A81882F05
:1030100090E0A90102C0559547958A95E2F7CA014B
:1030200081709070009799F4E9E3F0E08081282F97
:1030300030E08A81882F90E0A90102C0559547951C
:103040008A95E2F7CA01582F51705B830FC1EAE3FA
:10305000F0E08081282F30E08A81882F90E0A9015C
:1030600002C0559547958A95E2F7CA018170907024
:10307000882309F4F9C0EBE3F0E08081282F30E0E9
:103080008A81882F90E0A90102C0559547958A95BD
:10309000E2F7CA01582F51705B83E8C0E7E3F0E024
:1030A0008081282F30E08A81882F90E0A90102C01A
:1030B000559547958A95E2F7CA01817090700097FF
:1030C00099F4E6E3F0E08081282F30E08A81882FB0
:1030D00090E0A90102C0559547958A95E2F7CA018B
:1030E000582F51705B83C2C0E7E3F0E08081282F46
:1030F00030E08A81882F90E0A90102C0559547955C
:103100008A95E2F7CA0181709070882309F4ACC0F7
:10311000E8E3F0E08081282F30E08A81882F90E07A
:10312000A90102C0559547958A95E2F7CA01582F23
:1031300051705B839BC0E4E3F0E08081282F30E096
:103140008A81882F90E0A90102C0559547958A95FC
:10315000E2F7CA0181709070009799F4E3E3F0E020
:103160008081282F30E08A81882F90E0A90102C059
:10317000559547958A95E2F7CA01582F51705B83A0
:1031800075C0E4E3F0E08081282F30E08A81882F49
:1031900090E0A90102C0559547958A95E2F7CA01CA
:1031A00081709070882309F45FC0E5E3F0E08081CE
:1031B000282F30E08A81882F90E0A90102C0559520
:1031C00047958A95E2F7CA01582F51705B834EC02C
:1031D000E1E3F0E08081282F30E08A81882F90E0C1
:1031E000A90102C0559547958A95E2F7CA018170F9
:1031F0009070009799F4E0E3F0E08081282F30E0B0
:103200008A81882F90E0A90102C0559547958A953B
:10321000E2F7CA01582F51705B8328C0E1E3F0E068
:103220008081282F30E08A81882F90E0A90102C098
:10323000559547958A95E2F7CA0181709070882369
:1032400099F0E2E3F0E08081282F30E08A81882F36
:1032500090E0A90102C0559547958A95E2F7CA0109
:10326000582F51705B8302C08FEF8B838B810F903F
:103270000F900F900F900F90CF91DF910895DF93F3
:10328000CF9300D000D0CDB7DEB789836A83898120
:103290008823B1F18981853098F58981282F30E024
:1032A0003C832B838B819C8182309105D9F02B81CB
:1032B0003C812330310534F48B819C818130910530
:1032C00061F01EC02B813C812330310581F08B8160
:1032D0009C818430910581F013C0EAE3F0E08A819B
:1032E00080830EC0E7E3F0E08A81808309C0E4E3D5
:1032F000F0E08A81808304C0E1E3F0E08A8180838A
:103300000F900F900F900F90CF91DF910895DF9362
:10331000CF9300D000D0CDB7DEB789836A8389818F
:103320008823B1F18981853098F58981282F30E093
:103330003C832B838B819C8182309105D9F02B813A
:103340003C812330310534F48B819C81813091059F
:1033500061F01EC02B813C812330310581F08B81CF
:103360009C818430910581F013C0EBE3F0E08A8109
:1033700080830EC0E8E3F0E08A81808309C0E5E342
:10338000F0E08A81808304C0E2E3F0E08A818083F8
:103390000F900F900F900F90CF91DF910895DF93D2
:1033A000CF9300D000D0CDB7DEB789838981882341
:1033B000B9F189818530A0F58981282F30E03C83DF
:1033C0002B838B819C8182309105D9F02B813C81AC
:1033D0002330310534F48B819C818130910561F07B
:1033E0001FC02B813C812330310581F08B819C8172
:1033F0008430910581F014C0E9E3F0E090819A8374
:1034000011C0E6E3F0E020812A830CC0E3E3F0E0A2
:1034100030813A8307C0E0E3F0E080818A8302C014
:103420009FEF9A838A810F900F900F900F90CF910A
:10343000DF910895DF93CF9300D00F92CDB7DEB721
:1034400089836A834B8389816A8140E00E94AD153C
:1034500089816A814B810E94BB160F900F900F905B
:10346000CF91DF910895DF93CF9300D00F92CDB726
:10347000DEB7198283E08B831A8269817A818B811E
:103480000E94481A0F900F900F90CF91DF910895EE
:10349000DF93CF9300D00F92CDB7DEB769837A83E5
:1034A0008B83A7E2B0E0E7E2F0E080818F778C9336
:1034B000A7E2B0E0E7E2F0E0808180648C93A7E2CD
:1034C000B0E0E7E2F0E080818F7D8C93A6E2B0E08F
:1034D000E6E2F0E0808180688C9389818130D1F4CC
:1034E000A6E2B0E0E6E2F0E0808180628C938A811F
:1034F000807E8A83A0E5B0E0E0E5F0E080818F7116
:103500008C93A0E5B0E0E0E5F0E090818A81892B22
:103510008C930AC08981882339F4A6E2B0E0E6E200
:10352000F0E080818F7D8C93A6E2B0E0E6E2F0E0EF
:103530008081877F8C938B8187708B83A6E2B0E03C
:10354000E6E2F0E08081887F8C93A6E2B0E0E6E2DC
:10355000F0E090818B81892B8C930F900F900F90CE
:10356000CF91DF910895DF93CF9300D00F92CDB725
:10357000DEB789837B836A8389818F718983A7E220
:10358000B0E0E7E2F0E08081807E8C93A7E2B0E0DB
:10359000E7E2F0E090818981892B8C93A6E2B0E08C
:1035A000E6E2F0E0808180648C93E6E2F0E08081E6
:1035B00082958F70882F90E0817090700097A9F3AA
:1035C000E4E2F0E080819181EA81FB819183808354
:1035D000A6E2B0E0E6E2F0E0808180618C930F909B
:1035E0000F900F90CF91DF910895DF93CF9300D08C
:1035F0000F92CDB7DEB769837A838B83E7E2F0E081
:103600008FEF8083A7E2B0E0E7E2F0E080818F7780
:103610008C93A7E2B0E0E7E2F0E0808180648C93D5
:10362000A7E2B0E0E7E2F0E080818F7D8C93A6E234
:10363000B0E0E6E2F0E0808180688C93898181309F
:10364000D1F4A6E2B0E0E6E2F0E0808180628C9303
:103650008A81807E8A83A0E5B0E0E0E5F0E08081A9
:103660008F718C93A0E5B0E0E0E5F0E090818A8175
:10367000892B8C930AC08981882339F4A6E2B0E0B3
:10368000E6E2F0E080818F7D8C93A6E2B0E0E6E296
:10369000F0E0808188608C938B8187708B83A6E2B9
:1036A000B0E0E6E2F0E08081887F8C93A6E2B0E0B3
:1036B000E6E2F0E090818B81892B8C930F900F9044
:1036C0000F90CF91DF910895DF93CF930F92CDB7F5
:1036D000DEB7898389818F718983A7E2B0E0E7E251
:1036E000F0E08081807E8C93A7E2B0E0E7E2F0E03A
:1036F00090818981892B8C93A6E2B0E0E6E2F0E02C
:10370000808180648C930F90CF91DF9108951F92F8
:103710000F920FB60F9211248F939F93EF93FF9305
:10372000DF93CF93CDB7DEB7E4E2F0E08081918103
:103730009093A3018093A201CF91DF91FF91EF912C
:103740009F918F910F900FBE0F901F901895DF9350
:10375000CF93CDB7DEB781E067E040E00E94AD15C2
:10376000CF91DF910895DF93CF9300D0CDB7DEB72F
:103770009A83898329813A8187E0B9010E94B31A2B
:10378000E981FA8180819181CC01A0E0B0E028E854
:1037900033E140E050E0BC01CD010E943D2BDC0153
:1037A000CB01072E7AE0B695A795979587957A95E0
:1037B000D1F7702DE981FA8191838083E981FA81C3
:1037C00080819181CC01A0E0B0E0BC01CD010E94DC
:1037D000A904DC01CB01BC01CD0120E030E040E2D6
:1037E00051E40E941903DC01CB01BC01CD010E9410
:1037F0004900DC01CB01E981FA81918380830F903C
:103800000F90CF91DF910895DF93CF9300D0CDB784
:10381000DEB789836A8389816A8140E00E94AD15A1
:103820000F900F90CF91DF910895DF93CF9300D049
:103830000F92CDB7DEB78A836B838A816B810E943A
:10384000C917898389810F900F900F90CF91DF91D5
:103850000895DF93CF9300D0CDB7DEB789836A8315
:1038600089816A8140E00E94AD1589816A8141E0C9
:103870000E941A1A0F900F90CF91DF910895DF9355
:10388000CF9300D0CDB7DEB789836A8389816A81FF
:103890000E94C9170F900F90CF91DF910895DF9389
:1038A000CF93CDB7DEB781E060E041E00E94AD1577
:1038B00081E061E041E00E94AD1581E062E041E01D
:1038C0000E94AD1581E063E041E00E94AD15CF910B
:1038D000DF910895DF93CF93CDB7DEB7C254D040C8
:1038E0000FB6F894DEBF0FBECDBFFE01EF5BFF4FFA
:1038F00091838083FE01EF5BFF4F80819181CC013A
:10390000A0E0B0E0BC01CD010E94A904DC01CB0124
:10391000BC01CD012CEB3CEC40E35EE30E941903BB
:10392000DC01CB01BC01CD010E944900DC01CB01CF
:10393000FE01FD9680839183A283B383FE01FD96F1
:1039400080819181A281B381B695A795979587953E
:10395000B695A795979587959CAF8BAF1AAE19AE84
:103960001AAE19AE1DC281E060E040E00E94BB16B5
:1039700081E061E041E00E94BB1681E062E041E04D
:103980000E94BB1681E063E041E00E94BB1680E02C
:1039900090E0A0E2B1E48DAB9EABAFABB8AF6DA948
:1039A0007EA98FA998AD20E030E04AEF54E40E9450
:1039B0001F02DC01CB0189AB9AABABABBCAB69A9F5
:1039C0007AA98BA99CA920E030E040E85FE30E943F
:1039D000250488232CF481E090E098AB8FA73FC0AA
:1039E00069A97AA98BA99CA920E03FEF4FE757E48A
:1039F0000E94C50318164CF56DA97EA98FA998AD34
:103A000020E030E040E251E40E941F02DC01CB01E3
:103A1000BC01CD010E944900DC01CB0198AB8FA70E
:103A20000FC088EC90E09EA78DA78DA59EA501975D
:103A3000F1F79EA78DA78FA598A9019798AB8FA79F
:103A40008FA598A9009769F714C069A97AA98BA9CD
:103A50009CA90E944900DC01CB0198AB8FA78FA5E0
:103A600098A99CA78BA78BA59CA50197F1F79CA76C
:103A70008BA781E060E041E00E94BB1681E061E03D
:103A800040E00E94BB1681E062E041E00E94BB166C
:103A900081E063E041E00E94BB1680E090E0A0E29C
:103AA000B1E48FA398A7A9A7BAA76FA178A589A504
:103AB0009AA520E030E04AEF54E40E941F02DC01A6
:103AC000CB018BA39CA3ADA3BEA36BA17CA18DA1B5
:103AD0009EA120E030E040E85FE30E9425048823B7
:103AE0002CF481E090E09AA389A33FC06BA17CA154
:103AF0008DA19EA120E03FEF4FE757E40E94C50350
:103B000018164CF56FA178A589A59AA520E030E09C
:103B100040E251E40E941F02DC01CB01BC01CD0157
:103B20000E944900DC01CB019AA389A30FC088EC55
:103B300090E098A38F8F8F8D98A10197F1F798A3AC
:103B40008F8F89A19AA101979AA389A389A19AA18C
:103B5000009769F714C06BA17CA18DA19EA10E9462
:103B60004900DC01CB019AA389A389A19AA19E8F68
:103B70008D8F8D8D9E8D0197F1F79E8F8D8F81E0BA
:103B800060E041E00E94BB1681E061E041E00E94FC
:103B9000BB1681E062E040E00E94BB1681E063E07A
:103BA00041E00E94BB1680E090E0A0E2B1E4898F82
:103BB0009A8FAB8FBC8F698D7A8D8B8D9C8D20E019
:103BC00030E04AEF54E40E941F02DC01CB018D8BF0
:103BD0009E8BAF8BB88F6D897E898F89988D20E001
:103BE00030E040E85FE30E94250488232CF481E064
:103BF00090E09C8B8B8B3FC06D897E898F89988DDF
:103C000020E03FEF4FE757E40E94C50318164CF53C
:103C1000698D7A8D8B8D9C8D20E030E040E251E4FF
:103C20000E941F02DC01CB01BC01CD010E944900B2
:103C3000DC01CB019C8B8B8B0FC088EC90E09A8BC6
:103C4000898B89899A890197F1F79A8B898B8B895E
:103C50009C8901979C8B8B8B8B899C89009769F73A
:103C600014C06D897E898F89988D0E944900DC017E
:103C7000CB019C8B8B8B8B899C89988B8F878F85B5
:103C800098890197F1F7988B8F8781E060E041E098
:103C90000E94BB1681E061E041E00E94BB1681E01A
:103CA00062E041E00E94BB1681E063E040E00E94D8
:103CB000BB1680E090E0A0E2B1E48B879C87AD87E3
:103CC000BE876B857C858D859E8520E030E04AEF40
:103CD00054E40E941F02DC01CB018F839887A987DF
:103CE000BA876F81788589859A8520E030E040E841
:103CF0005FE30E94250488232CF481E090E09E83FA
:103D00008D833FC06F81788589859A8520E03FEF5C
:103D10004FE757E40E94C50318164CF56B857C8568
:103D20008D859E8520E030E040E251E40E941F0234
:103D3000DC01CB01BC01CD010E944900DC01CB01BB
:103D40009E838D830FC088EC90E09C838B838B8156
:103D50009C810197F1F79C838B838D819E810197D4
:103D60009E838D838D819E81009769F714C06F813A
:103D7000788589859A850E944900DC01CB019E8364
:103D80008D838D819E819A83898389819A81019710
:103D9000F1F79A83898389AD9AAD01969AAF89AF7D
:103DA00029AD3AAD8BAD9CAD2817390708F4DBCDB2
:103DB000CE5BDF4F0FB6F894DEBF0FBECDBFCF9105
:103DC000DF910895DF93CF93CDB7DEB7EE970FB6AF
:103DD000F894DEBF0FBECDBF9EAF8DAF8DAD9EAD53
:103DE000CC01A0E0B0E0BC01CD010E94A904DC013F
:103DF000CB01BC01CD012CEB3CEC40E35EE30E9427
:103E00001903DC01CB01BC01CD0120E030E040E82A
:103E100050E40E941903DC01CB01BC01CD010E94DA
:103E20004900DC01CB019CAF8BAF1AAE19AE1AAEC4
:103E300019AE1DC281E060E040E00E94BB1681E047
:103E400061E041E00E94BB1681E062E041E00E9437
:103E5000BB1681E063E041E00E94BB1680E090E089
:103E6000A0E2B1E48DAB9EABAFABB8AF6DA97EA9BC
:103E70008FA998AD20E030E04AEF54E40E941F0281
:103E8000DC01CB0189AB9AABABABBCAB69A97AA91E
:103E90008BA99CA920E030E040E85FE30E94250464
:103EA00088232CF481E090E098AB8FA73FC069A9EC
:103EB0007AA98BA99CA920E03FEF4FE757E40E9425
:103EC000C50318164CF56DA97EA98FA998AD20E001
:103ED00030E040E251E40E941F02DC01CB01BC0152
:103EE000CD010E944900DC01CB0198AB8FA70FC028
:103EF00088EC90E09EA78DA78DA59EA50197F1F770
:103F00009EA78DA78FA598A9019798AB8FA78FA57E
:103F100098A9009769F714C069A97AA98BA99CA9E7
:103F20000E944900DC01CB0198AB8FA78FA598A90F
:103F30009CA78BA78BA59CA50197F1F79CA78BA7A6
:103F400081E060E041E00E94BB1681E061E041E079
:103F50000E94BB1681E062E041E00E94BB1681E056
:103F600063E040E00E94BB1680E090E0A0E2B1E494
:103F70008FA398A7A9A7BAA76FA178A589A59AA585
:103F800020E030E04AEF54E40E941F02DC01CB0144
:103F90008BA39CA3ADA3BEA36BA17CA18DA19EA16D
:103FA00020E030E040E85FE30E94250488232CF401
:103FB00081E090E09AA389A33FC06BA17CA18DA171
:103FC0009EA120E03FEF4FE757E40E94C50318167B
:103FD0004CF56FA178A589A59AA520E030E040E2D4
:103FE00051E40E941F02DC01CB01BC01CD010E9403
:103FF0004900DC01CB019AA389A30FC088EC90E0B3
:1040000098A38F8F8F8D98A10197F1F798A38F8F29
:1040100089A19AA101979AA389A389A19AA100973E
:1040200069F714C06BA17CA18DA19EA10E944900DB
:10403000DC01CB019AA389A389A19AA19E8F8D8FC0
:104040008D8D9E8D0197F1F79E8F8D8F81E060E0C1
:1040500041E00E94BB1681E061E041E00E94BB1696
:1040600081E062E040E00E94BB1681E063E041E055
:104070000E94BB1680E090E0A0E2B1E4898F9A8FA5
:10408000AB8FBC8F698D7A8D8B8D9C8D20E030E05D
:104090004AEF54E40E941F02DC01CB018D8B9E8B02
:1040A000AF8BB88F6D897E898F89988D20E030E045
:1040B00040E85FE30E94250488232CF481E090E02F
:1040C0009C8B8B8B3FC06D897E898F89988D20E07A
:1040D0003FEF4FE757E40E94C50318164CF5698D72
:1040E0007A8D8B8D9C8D20E030E040E251E40E947F
:1040F0001F02DC01CB01BC01CD010E944900DC01A3
:10410000CB019C8B8B8B0FC088EC90E09A8B898BBA
:1041100089899A890197F1F79A8B898B8B899C8978
:1041200001979C8B8B8B8B899C89009769F714C0B6
:104130006D897E898F89988D0E944900DC01CB01B1
:104140009C8B8B8B8B899C89988B8F878F8598898B
:104150000197F1F7988B8F8781E060E041E00E9442
:10416000BB1681E061E040E00E94BB1681E062E0A6
:1041700041E00E94BB1681E063E041E00E94BB1673
:1041800080E090E0A0E2B1E48B879C87AD87BE879A
:104190006B857C858D859E8520E030E04AEF54E478
:1041A0000E941F02DC01CB018F839887A987BA8701
:1041B0006F81788589859A8520E030E040E85FE36B
:1041C0000E94250488232CF481E090E09E838D8357
:1041D0003FC06F81788589859A8520E03FEF4FE762
:1041E00057E40E94C50318164CF56B857C858D85B8
:1041F0009E8520E030E040E251E40E941F02DC0195
:10420000CB01BC01CD010E944900DC01CB019E83A2
:104210008D830FC088EC90E09C838B838B819C8185
:104220000197F1F79C838B838D819E8101979E83FB
:104230008D838D819E81009769F714C06F81788589
:1042400089859A850E944900DC01CB019E838D837C
:104250008D819E819A83898389819A810197F1F763
:104260009A83898389AD9AAD01969AAF89AF29ADBA
:104270003AAD8BAD9CAD2817390708F4DBCDEE962F
:104280000FB6F894DEBF0FBECDBFCF91DF9108957A
:10429000DF93CF93CDB7DEB781E06FEF0E943F1978
:1042A00082E06FEF0E943F1981E06FEF0E94871953
:1042B00082E06FEF0E948719CF91DF910895DF931D
:1042C000CF9300D0CDB7DEB78A838A818A3080F45D
:1042D0008A81882F90E0FC01E859FE4F908181E0AF
:1042E000692F0E94871982E06FEF0E94871931C001
:1042F0008A818A3069F49091680181E0692F0E9477
:1043000087199091690182E0692F0E94871921C065
:10431000198206C089818F5F89838A818A508A8346
:104320008A818A30B8F78A81882F90E0FC01E859A9
:10433000FE4F908181E0692F0E9487198981882F23
:1043400090E0FC01E859FE4F908182E0692F0E94C5
:1043500087190F900F90CF91DF910895DF93CF933E
:10436000CDB7DEB781E06FEF0E94871982E06FEF73
:104370000E948719CF91DF910895DF93CF93CDB736
:10438000DEB784E065E041E00E94AD150E946A0E50
:10439000CF91DF910895DF93CF9300D00F92CDB7E7
:1043A000DEB78B838B81882F90E0A0E0B0E0BC016A
:1043B000CD010E94A904DC01CB01BC01CD0120E0AC
:1043C00030E044E353E40E941903DC01CB01BC015B
:1043D000CD0120E030E04AE754E40E941F02DC01F6
:1043E000CB01BC01CD0120E030E04AE754E40E945B
:1043F000F201DC01CB01BC01CD010E944900DC01CE
:10440000CB019A83898389819A810E94B70E0F908C
:104410000F900F90CF91DF910895DF93CF93CDB799
:10442000DEB766970FB6F894DEBF0FBECDBF8D8B9B
:104430006E8B8D89882F90E0A0E0B0E0BC01CD01AB
:104440000E94A904DC01CB01BC01CD0120E030E0D9
:1044500044E353E40E941903DC01CB01BC01CD010C
:1044600020E030E04AE754E40E941F02DC01CB0167
:10447000BC01CD0120E030E04AE754E40E94F201A3
:10448000DC01CB01BC01CD010E944900DC01CB0164
:104490009C8B8B8B8E89882F90E0A0E0B0E0BC01D4
:1044A000CD010E94A904DC01CB01BC01CD0120E0BB
:1044B00030E044E353E40E941903DC01CB01BC016A
:1044C000CD0120E030E04AE754E40E941F02DC0105
:1044D000CB01BC01CD0120E030E04AE754E40E946A
:1044E000F201DC01CB01BC01CD010E944900DC01DD
:1044F000CB019A8B898B8B899C89988B8F877BC00A
:104500008F8598890E94B70E80E090E0A0E2B1E428
:104510008B879C87AD87BE876B857C858D859E85C7
:1045200020E030E04AEF54E40E941F02DC01CB019E
:104530008F839887A987BA876F81788589859A85BF
:1045400020E030E040E85FE30E94250488232CF45B
:1045500081E090E09E838D833FC06F81788589855F
:104560009A8520E03FEF4FE757E40E94C5031816F5
:104570004CF56B857C858D859E8520E030E040E2A2
:1045800051E40E941F02DC01CB01BC01CD010E945D
:104590004900DC01CB019E838D830FC088EC90E045
:1045A0009C838B838B819C810197F1F79C838B8308
:1045B0008D819E8101979E838D838D819E81009741
:1045C00069F714C06F81788589859A850E944900B2
:1045D000DC01CB019E838D838D819E819A838983AB
:1045E00089819A810197F1F79A8389838F859889C8
:1045F0000596988B8F872F85388989899A898217A4
:10460000930708F07DCF66960FB6F894DEBF0FBE15
:10461000CDBFCF91DF910895DF93CF93CDB7DEB7B4
:1046200066970FB6F894DEBF0FBECDBF8D8B6E8B35
:104630008D89882F90E0A0E0B0E0BC01CD010E9400
:10464000A904DC01CB01BC01CD0120E030E044E352
:1046500053E40E941903DC01CB01BC01CD0120E031
:1046600030E04AE754E40E941F02DC01CB01BC01A8
:10467000CD0120E030E04AE754E40E94F201DC0181
:10468000CB01BC01CD010E944900DC01CB019C8B18
:104690008B8B8E89882F90E0A0E0B0E0BC01CD012B
:1046A0000E94A904DC01CB01BC01CD0120E030E077
:1046B00044E353E40E941903DC01CB01BC01CD01AA
:1046C00020E030E04AE754E40E941F02DC01CB0105
:1046D000BC01CD0120E030E04AE754E40E94F20141
:1046E000DC01CB01BC01CD010E944900DC01CB0102
:1046F0009A8B898B8B899C89988B8F877BC08F85C0
:1047000098890E94B70E80E090E0A0E2B1E48B8728
:104710009C87AD87BE876B857C858D859E8520E0D7
:1047200030E04AEF54E40E941F02DC01CB018F838A
:104730009887A987BA876F81788589859A8520E0CF
:1047400030E040E85FE30E94250488232CF481E0F8
:1047500090E09E838D833FC06F81788589859A859F
:1047600020E03FEF4FE757E40E94C50318164CF5D1
:104770006B857C858D859E8520E030E040E251E4AC
:104780000E941F02DC01CB01BC01CD010E94490047
:10479000DC01CB019E838D830FC088EC90E09C836D
:1047A0008B838B819C810197F1F79C838B838D8117
:1047B0009E8101979E838D838D819E81009769F7ED
:1047C00014C06F81788589859A850E944900DC0133
:1047D000CB019E838D838D819E819A83898389817C
:1047E0009A810197F1F79A8389838F859889059734
:1047F000988B8F872F85388989899A892817390757
:1048000008F07DCF66960FB6F894DEBF0FBECDBF21
:10481000CF91DF910895DF93CF9300D0CDB7DEB76E
:1048200089836A8389816A8141E00E94AD150F9076
:104830000F90CF91DF910895DF93CF9300D0CDB744
:10484000DEB789836A8389816A8141E00E94BB1651
:104850000F900F90CF91DF910895DF93CF9300D009
:10486000CDB7DEB789836A8389816A8140E00E947F
:10487000BB160F900F90CF91DF910895DF93CF93E8
:1048800000D0CDB7DEB789836A8389816A810E94AF
:10489000C917813029F489816A810E942D2404C0BE
:1048A00089816A810E941C240F900F90CF91DF9123
:1048B0000895DF93CF930F92CDB7DEB7898381E060
:1048C00060E040E00E94BB1681E061E040E00E94B1
:1048D000BB1681E062E041E00E94BB1683E0698183
:1048E0000E94871981E062E040E00E94BB160F90B1
:1048F000CF91DF910895DF93CF930F92CDB7DEB7BD
:10490000898381E060E041E00E94BB1681E061E0C4
:1049100040E00E94BB1681E062E041E00E94BB16CD
:1049200083E069810E94871981E062E040E00E9493
:10493000BB160F90CF91DF910895DF93CF93CDB742
:10494000DEB7E8970FB6F894DEBF0FBECDBF81E0AB
:1049500060E041E00E94AD1581E061E041E00E942D
:10496000AD1581E062E041E00E94AD1583E06FEF9C
:104970000E943F1980E090E0ACE0B2E48DAB9EABCA
:10498000AFABB8AF6DA97EA98FA998AD20E030E09C
:104990004AEF54E40E941F02DC01CB0189AB9AABC1
:1049A000ABABBCAB69A97AA98BA99CA920E030E08C
:1049B00040E85FE30E94250488232CF481E090E026
:1049C00098AB8FA73FC069A97AA98BA99CA920E0C1
:1049D0003FEF4FE757E40E94C50318164CF56DA949
:1049E0007EA98FA998AD20E030E040E251E40E941A
:1049F0001F02DC01CB01BC01CD010E944900DC019A
:104A0000CB0198AB8FA70FC088EC90E09EA78DA735
:104A10008DA59EA50197F1F79EA78DA78FA598A9B3
:104A2000019798AB8FA78FA598A9009769F714C035
:104A300069A97AA98BA99CA90E944900DC01CB0134
:104A400098AB8FA78FA598A99CA78BA78BA59CA592
:104A50000197F1F79CA78BA788E30E94592480E077
:104A600090E0A0E8BFE38FA398A7A9A7BAA76FA17A
:104A700078A589A59AA520E030E04AEF54E40E9489
:104A80001F02DC01CB018BA39CA3ADA3BEA36BA132
:104A90007CA18DA19EA120E030E040E85FE30E9470
:104AA000250488232CF481E090E09AA389A33FC0D9
:104AB0006BA17CA18DA19EA120E03FEF4FE757E4C1
:104AC0000E94C50318164CF56FA178A589A59AA573
:104AD00020E030E040E251E40E941F02DC01CB0103
:104AE000BC01CD010E944900DC01CB019AA389A33E
:104AF0000FC088EC90E098A38F8F8F8D98A10197BD
:104B0000F1F798A38F8F89A19AA101979AA389A3FE
:104B100089A19AA1009769F714C06BA17CA18DA10E
:104B20009EA10E944900DC01CB019AA389A389A11F
:104B30009AA19E8F8D8F8D8D9E8D0197F1F79E8FFF
:104B40008D8F8FE00E94592480E090E0A0E8BFE3C1
:104B5000898F9A8FAB8FBC8F698D7A8D8B8D9C8D51
:104B600020E030E04AEF54E40E941F02DC01CB0158
:104B70008D8B9E8BAF8BB88F6D897E898F89988D39
:104B800020E030E040E85FE30E94250488232CF415
:104B900081E090E09C8B8B8B3FC06D897E898F89F3
:104BA000988D20E03FEF4FE757E40E94C5031816A9
:104BB0004CF5698D7A8D8B8D9C8D20E030E040E244
:104BC00051E40E941F02DC01CB01BC01CD010E9417
:104BD0004900DC01CB019C8B8B8B0FC088EC90E0F3
:104BE0009A8B898B89899A890197F1F79A8B898B9E
:104BF0008B899C8901979C8B8B8B8B899C890097D7
:104C000069F714C06D897E898F89988D0E9449004B
:104C1000DC01CB019C8B8B8B8B899C89988B8F873C
:104C20008F8598890197F1F7988B8F8781E00E9493
:104C3000592480E090E0A0E0B0E48B879C87AD87AA
:104C4000BE876B857C858D859E8520E030E04AEFB0
:104C500054E40E941F02DC01CB018F839887A9874F
:104C6000BA876F81788589859A8520E030E040E8B1
:104C70005FE30E94250488232CF481E090E09E836A
:104C80008D833FC06F81788589859A8520E03FEFCD
:104C90004FE757E40E94C50318164CF56B857C85D9
:104CA0008D859E8520E030E040E251E40E941F02A5
:104CB000DC01CB01BC01CD010E944900DC01CB012C
:104CC0009E838D830FC088EC90E09C838B838B81C7
:104CD0009C810197F1F79C838B838D819E81019745
:104CE0009E838D838D819E81009769F714C06F81AB
:104CF000788589859A850E944900DC01CB019E83D5
:104D00008D838D819E819A83898389819A81019780
:104D1000F1F79A83898386E00E945924E8960FB6BA
:104D2000F894DEBF0FBECDBFCF91DF910895DF9322
:104D3000CF9300D00F92CDB7DEB79B838A831982C1
:104D40000EC08981282F30E08A819B81FC01E20F0F
:104D5000F31F80810E947B2489818F5F89838981F1
:104D6000282F30E08A819B81FC01E20FF31F8081B4
:104D7000882339F70F900F900F90CF91DF9108950E
:104D8000DF93CF9300D00F92CDB7DEB78A836B83CA
:104D90008A81882319F48B81898306C08A818130B6
:104DA00019F48B81805C8983898180680E945924F1
:104DB0000F900F900F90CF91DF910895DF93CF93D5
:104DC000CDB7DEB727970FB6F894DEBF0FBECDBFC5
:104DD0008B837D836C834E832F838B81882F90E020
:104DE000880F991F880F991F880F991F8A838A81BE
:104DF00080640E94592419820EC08981282F30E0D6
:104E00008C819D81FC01E20FF31F80810E947B2435
:104E100089818F5F89838981883078F38E816F8162
:104E20000E94C0268B810E947B2427960FB6F8949F
:104E3000DEBF0FBECDBFCF91DF910895DF93CF933B
:104E4000CDB7DEB72E970FB6F894DEBF0FBECDBF3D
:104E500081E00E94592480E090E0A0E0B0E48B87DC
:104E60009C87AD87BE876B857C858D859E8520E080
:104E700030E04AEF54E40E941F02DC01CB018F8333
:104E80009887A987BA876F81788589859A8520E078
:104E900030E040E85FE30E94250488232CF481E0A1
:104EA00090E09E838D833FC06F81788589859A8548
:104EB00020E03FEF4FE757E40E94C50318164CF57A
:104EC0006B857C858D859E8520E030E040E251E455
:104ED0000E941F02DC01CB01BC01CD010E944900F0
:104EE000DC01CB019E838D830FC088EC90E09C8316
:104EF0008B838B819C810197F1F79C838B838D81C0
:104F00009E8101979E838D838D819E81009769F795
:104F100014C06F81788589859A850E944900DC01DB
:104F2000CB019E838D838D819E819A838983898124
:104F30009A810197F1F79A8389832E960FB6F89498
:104F4000DEBF0FBECDBFCF91DF9108950F931F93AA
:104F5000DF93CF93CDB7DEB7A0970FB6F894DEBF3F
:104F60000FBECDBF6D8F7E8F8F8F98A31F821E8245
:104F70001D828D8D9E8DAF8DB8A1BB23C4F48D8D08
:104F80009E8DAF8DB8A1B095A095909581959F4FBE
:104F9000AF4FBF4F8D8F9E8FAF8FB8A381E08D83B2
:104FA00081E08E838DE289878F818F5F8F838D8DE6
:104FB0009E8DAF8DB8A189839A83AB83BC83898191
:104FC0009A81AB81BC812AE030E040E050E0BC0136
:104FD000CD010E94832BDA01C90189839A83AB83B7
:104FE000BC838F818F5F8F8389819A81AB81BC81E4
:104FF0000097A105B10519F78F818150888730C0CE
:105000008885082F112707FD10958D8D9E8DAF8DFA
:10501000B8A12AE030E040E050E0BC01CD010E94A0
:10502000A52BDC01CB01282F205DCE010996FC01C8
:10503000E00FF11F20838D8D9E8DAF8DB8A12AE0EA
:1050400030E040E050E0BC01CD010E94A52BDA0128
:10505000C9018D8F9E8FAF8FB8A3888581508887B7
:105060008885282F332727FD30958E81882F90E063
:10507000281739072CF68F81282F30E0CE010996AA
:10508000FC01E20FF31F1082CE0109960E949726C1
:10509000A0960FB6F894DEBF0FBECDBFCF91DF91C3
:1050A0001F910F910895DF93CF93CDB7DEB781E0C5
:1050B00063E040E00E94AD15CF91DF910895DF934A
:1050C000CF9300D0CDB7DEB79A83898329813A8107
:1050D00083E0B9010E94B31AE981FA81808191814C
:1050E000CC01A0E0B0E028E833E140E050E0BC01B2
:1050F000CD010E943D2BDC01CB01072E7AE0B69555
:10510000A795979587957A95D1F7702DE981FA81C2
:1051100091838083E981FA8180819181CC01A0E033
:10512000B0E0BC01CD010E94A904DC01CB01BC01AF
:10513000CD0120E030E040E251E40E941903DC019F
:10514000CB01BC01CD010E944900DC01CB01E9810A
:10515000FA81918380830F900F90CF91DF91089512
:10516000DF93CF9300D00F92CDB7DEB781E064E03C
:1051700040E00E94AD1519821A8283E08B83698119
:105180007A818B810E94481A0F900F900F90CF91D7
:10519000DF910895DF93CF9300D0CDB7DEB79A8328
:1051A000898329813A8184E0B9010E94B31AE98197
:1051B000FA8180819181CC01A0E0B0E028E833E160
:1051C00040E050E0BC01CD010E943D2BDC01CB0151
:1051D000072E7AE0B695A795979587957A95D1F79A
:1051E000702DE981FA81918380830F900F90CF9188
:1051F000DF910895DF93CF93CDB7DEB784E060EF02
:105200000E943F1984E06FEF0E948719CF91DF91D0
:105210000895DF93CF9300D00F92CDB7DEB71A82F7
:1052200038C084E06FEF0E9487198A81982F9C5FB5
:1052300084E0692F40E00E94BB1619821CC084E004
:1052400069810E94C917882399F48981482F50E009
:105250008A81282F30E0CA01880F991F880F991F73
:10526000820F931FFC01EE58FE4F80818B8316C086
:1052700089818F5F89838981843008F38A81982F9F
:105280009C5F84E0692F41E00E94BB168A818F5F9A
:105290008A838A81843028F28FEF8B838B810F90F1
:1052A0000F900F90CF91DF910895DF93CF9300D0AF
:1052B00000D00F92CDB7DEB71C821B8239C08B8124
:1052C000982F9C5F84E0692F40E00E94BB161A82F1
:1052D00019821CC0998184E0692F0E94C917882314
:1052E00081F489819A812B813C81880F991F880FD5
:1052F000991F820F931FFC01EE58FE4F80818D8312
:105300001EC089819A8101969A83898389819A81B5
:1053100084309105FCF28B81982F9C5F84E0692F8B
:1053200040E00E94BB168B819C8101969C838B83FD
:105330008B819C818430910514F28FEF8D838D8158
:105340000F900F900F900F900F90CF91DF910895D5
:10535000DF93CF9300D00F92CDB7DEB781E065E049
:1053600040E00E94AD1519821A8283E08B83698127
:105370007A818B810E94481A0F900F900F90CF91E5
:10538000DF910895DF93CF93CDB7DEB781E065E07D
:1053900040E00E94AD15CF91DF910895DF93CF9348
:1053A00000D0CDB7DEB79A8389830F900F90CF914D
:1053B000DF910895DF93CF93CDB7DEB781E065E04D
:1053C0000E94C917CF91DF910895DF93CF93CDB796
:1053D000DEB781E060E041E00E94AD1581E061E070
:1053E00041E00E94AD1581E062E041E00E94AD1510
:1053F00081E063E041E00E94AD15CF91DF91089517
:10540000DF93CF930F92CDB7DEB78983898188234D
:10541000A9F481E060E041E00E94BB1681E063E016
:1054200041E00E94BB1681E061E040E00E94BB16B3
:1054300081E062E040E00E94BB1617C089818130A4
:10544000A1F481E060E040E00E94BB1681E063E0EF
:1054500040E00E94BB1681E061E041E00E94BB1683
:1054600081E062E041E00E94BB160F90CF91DF9196
:105470000895DF93CF93CDB7DEB781E060E040E0E1
:105480000E94BB1681E063E040E00E94BB1681E011
:1054900061E040E00E94BB1681E062E040E00E94D3
:1054A000BB16CF91DF910895DF93CF93CDB7DEB7D1
:1054B00081E061E041E00E94AD15CF91DF91089558
:1054C000DF93CF93CDB7DEB781E061E041E00E948A
:1054D000BB16CF91DF910895DF93CF93CDB7DEB7A1
:1054E00081E061E040E00E94BB16CF91DF9108951A
:1054F000DF93CF93CDB7DEB781E061E00E94C9179B
:10550000813019F40E946C2A02C00E94602ACF9157
:10551000DF910895DF93CF93CDB7DEB784E061E0EC
:1055200041E00E94AD1584E060E040E00E94AD15CE
:1055300060E875E280E090E00E941707CF91DF916C
:105540000895DF93CF93CDB7DEB70E94AB07CF911D
:10555000DF910895DF93CF93CDB7DEB782E063E0AC
:1055600041E00E94AD1581E060E00E940B2481E0E3
:1055700061E00E940B2484E067E00E940B2485ED2B
:105580009AE20E94270889E09BE20E947D0A82E05D
:1055900062E044E621E00E94700882E060E041E0C1
:1055A0000E94240A0E945A13FFCFDF93CF93CDB7F6
:1055B000DEB78091A4019091A501A091A601B091C0
:1055C000A70120ED37E040E050E0BC01CD010E9492
:1055D000832BDC01CB010097A105B10521F481E00B
:1055E00060E00E943E248091A4019091A501A091C9
:1055F000A601B091A7010196A11DB11D8093A40140
:105600009093A501A093A601B093A701CF91DF913C
:105610000895DF93CF93CDB7DEB78091A801909125
:10562000A901A091AA01B091AB0124E130E040E0D2
:1056300050E0BC01CD010E94832BDC01CB0100971F
:10564000A105B10521F481E061E00E943E24809132
:10565000A8019091A901A091AA01B091AB01019676
:10566000A11DB11D8093A8019093A901A093AA0147
:10567000B093AB01CF91DF910895629FD001739FEA
:10568000F001829FE00DF11D649FE00DF11D929FDE
:10569000F00D839FF00D749FF00D659FF00D99271D
:1056A000729FB00DE11DF91F639FB00DE11DF91F41
:1056B000BD01CF0111240895AA1BBB1B51E107C0F6
:1056C000AA1FBB1FA617B70710F0A61BB70B881F92
:1056D000991F5A95A9F780959095BC01CD01089521
:1056E00097FB092E07260AD077FD04D0E5DF06D008
:1056F00000201AF4709561957F4F0895F6F7909504
:1057000081959F4F0895A1E21A2EAA1BBB1BFD0194
:105710000DC0AA1FBB1FEE1FFF1FA217B307E40790
:10572000F50720F0A21BB30BE40BF50B661F771FE8
:10573000881F991F1A9469F76095709580959095C8
:105740009B01AC01BD01CF01089597FB092E0526F1
:105750000ED057FD04D0D7DF0AD0001C38F4509586
:105760004095309521953F4F4F4F5F4F0895F6F785
:1057700090958095709561957F4F8F4F9F4F0895BD
:105780002F923F924F925F926F927F928F929F9251
:10579000AF92BF92CF92DF92EF92FF920F931F933F
:1057A000CF93DF93CDB7DEB7CA1BDB0B0FB6F894F0
:1057B000DEBF0FBECDBF09942A88398848885F8430
:1057C0006E847D848C849B84AA84B984C884DF80A1
:1057D000EE80FD800C811B81AA81B981CE0FD11D85
:1057E0000FB6F894DEBF0FBECDBFED010895F8945B
:0257F000FFCFE9
:1057F2000000000000000000000102020303030396
:10580200040404040404040405050505050505054E
:10581200050505050505050506060606060606062E
:105822000606060606060606060606060606060616
:1058320006060606060606060707070707070707FE
:1058420007070707070707070707070707070707E6
:1058520007070707070707070707070707070707D6
:1058620007070707070707070707070707070707C6
:1058720007070707070707070808080808080808AE
:105882000808080808080808080808080808080896
:105892000808080808080808080808080808080886
:1058A2000808080808080808080808080808080876
:1058B2000808080808080808080808080808080866
:1058C2000808080808080808080808080808080856
:1058D2000808080808080808080808080808080846
:1058E2000808080808080808080808080808080836
:1058F2000808080808080808C0F9A4B0999282F8B4
:1059020080900102030405060708090A0B0C0D0E1C
:105912000F103132332F3435362A3738392D523081
:02592200432B15
:00000001FF
